:020000040800F2
:10000000800A0020E901000889190008511700083A
:10001000851900086F070008691F0008000000002C
:100020000000000000000000000000009D0100082A
:1000300073070008000000008B1900088D190008E4
:10004000030200080302000803020008030200087C
:10005000030200080302000803020008030200086C
:10006000030200080302000803020008030200085C
:10007000030200080302000803020008030200084C
:10008000030200080302000803020008030200083C
:10009000030200080302000803020008030200082C
:1000A00003020008A11A0008030200080302000866
:1000B000030200080302000803020008030200080C
:1000C00003020008030200080302000803020008FC
:1000D00003020008030200080302000803020008EC
:1000E00003020008030200080302000803020008DC
:1000F00003020008030200080302000803020008CC
:1001000003020008030200080302000803020008BB
:1001100003020008030200080302000803020008AB
:10012000030200080302000803020008030200089B
:10013000030200080302000803020008030200088B
:10014000030200080302000803020008030200087B
:10015000030200080302000803020008030200086B
:10016000030200080302000803020008030200085B
:100170000302000803020008030200080000000058
:100180000302000803020008DFF80CD000F06EFA4A
:1001900000480047252A0008800A002072B61EF099
:1001A000040F0CBFEFF30880EFF3098020E9F00F94
:1001B000EFF31482734620E90C001EF0040F08BF11
:1001C000854602F0CBFDB0E8FC0F9E4682F3148812
:1001D000BFF36F8F1EF0040F0CBF80F3088880F30D
:1001E000098862B670470000064880470648004705
:1001F000FEE7FEE7FEE7FEE7FEE7FEE7FEE7FEE7D7
:10020000FEE7FEE73D1A0008890100082DE9F05FCE
:100210000546002092469B46884606468146402475
:100220001BE0284641464746224600F057F8534611
:100230005A46C01A914110D311461846224600F082
:100240003EF82D1A67EB01084F4622460120002197
:1002500000F035F817EB00094E41201EA4F101040F
:10026000DFDC484631462A464346BDE8F09FD2B21D
:1002700001E000F8012B491EFBD270470022F6E78F
:1002800010B513460A4604461946FFF7F0FF20460C
:1002900010BD30B50B46014600202022012409E0A4
:1002A00021FA02F59D4205D303FA02F5491B04FA2F
:1002B00002F52844151EA2F10102F1DC30BD202A0E
:1002C00004DB203A00FA02F1002070479140C2F1AD
:1002D000200320FA03F3194390407047202A04DBDF
:1002E000203A21FA02F00021704721FA02F3D040AF
:1002F000C2F1200291400843194670472DE9FE4F94
:10030000804681EA0300C00F0C46009021F00041B6
:1003100023F00045B8EB0200A94105D24046214632
:1003200090461C460B46024623F00040104347D03F
:10033000270DC7F30A00C3F30A510290401A019037
:1003400040286BDAC3F3130040F4801B00989246F8
:1003500020B10023D2EB030A63EB0B0B0198594643
:10036000C0F140025046FFF7AAFF06460D46504630
:100370005946019A00F08CF910EB08006141002405
:1003800087EA115284EAE7731A4340D0009A62B3B5
:10039000019A012A4FEA075215DC001B61EB0201AA
:1003A0004FF0004202EA0752CDE90042001C41F53D
:1003B000801132462B4600F08CF903B0BDE8F08F77
:1003C00040462146F9E7001B61EB0201001C41F5A4
:1003D000801300185B412018A2F5001747EB0301BA
:1003E00040EAD570B6196D4111E06D084FEA360646
:1003F00045EAC0754FEA0752001B61EB0201001C81
:1004000041F5801149084FEA300000195141324648
:100410002B4603B0BDE8F04F00F04CB90098012224
:1004200040000023D0EB020263EBE073009821460A
:100430004FEAE074B8EB000061EB0401E9E783F0F8
:1004400000435BE781F0004158E72DE9FE4F81EA68
:10045000030404F0004421F0004100944FF0000B2D
:1004600023F0004350EA01045ED052EA03045BD05B
:10047000C3F30A54C1F30A552C44A4F2F334019493
:10048000A0FB0254C1F3130141F48011C3F3130321
:1004900043F4801301FB024400FB034E840A970AD5
:1004A00044EA815447EA8357A4FB076802958D0A02
:1004B00005FB07854FEA932C04FB0C542705029D8E
:1004C0004FEA065847EA1637B5EB08056EEB070CFE
:1004D000870E920E47EA811742EA8312A7FB0201B8
:1004E000B6EB0B0164EB00042B0D43EA0C335E18F2
:1004F00044EB1C50DA465146E7FB0201C5F31304F6
:100500004FEA0B3343EA14534FEA0432019C43EAA7
:100510000603A4F10C040294009CCDE900B400F0A1
:10052000D8F803B0BDE8F08F00200146F9E72DE9C7
:10053000F04D81EA030404F0004B21F0004514461D
:100540004FF0000A23F0004150EA050220D054EA9F
:1005500001021DD0C5F30A570246C5F31303C1F3C8
:100560001300C1F30A5640F4801543F48013A7EB3F
:100570000608101BD64608F2FD3873EB050002D3BF
:1005800008F1010801E092185B41B8F1000F03DAAD
:1005900000200146BDE8F08D00204FF48011064692
:1005A00084460EE0171B73EB050705D3121B63EBA4
:1005B000050306434CEA010C49084FEA3000921843
:1005C0005B4150EA0107EDD152EA030012D082EA02
:1005D000040083EA0501084305D0101BAB4106D295
:1005E0000122002306E000224FF0004302E06FF0FA
:1005F000010253101AEB06004CEB085110EB0A00F5
:1006000041EB0B01BDE8F04D00F054B8C1F30A52C4
:10061000C1F3130140F2FF3341F480119A4202DA30
:1006200000200146704740F233439A42A2F233421F
:1006300002DC5242FFF752BEFFF741BE30B5041E46
:1006400071F1000404DB4FF00044404264EB01010F
:10065000141E73F1000405DB1C464FF000435242A8
:1006600063EB0403994208BF904230BD064C074D2E
:1006700006E0E06840F0010394E807009847103472
:10068000AC42F6D3FFF784FD742F0008942F0008C6
:10069000202A06DBCB17203A41FA02F043EAE07346
:1006A00006E041FA02F3D040C2F120029140084333
:1006B0001946704710B5141E73F1000408DA401C87
:1006C00041F1000192185B411A4301D120F0010071
:1006D00010BD2DE9F04D92469B4611B1B1FA81F261
:1006E00002E0B0FA80F220329046FFF7E8FD0446BF
:1006F0000F4640EA0A0041EA0B0153465A460843B6
:1007000013D0114653EA010019D0C8F140025046F7
:10071000FFF7E4FD05460E46504659464246FFF7B0
:10072000CEFD084305D0012004E020463946BDE84F
:10073000F08D0020054346EAE0762C4337430A98C3
:100740006305E40AA0EB08000022FD0A44EA4754CE
:100750000A3002D500200146E9E701051019694178
:10076000DDE9084500196941BDE8F04DA2E700BF89
:10077000FEE77047F8B502460B460025002400202E
:100780000021DCE0012606FA01F51E6806EA0504F0
:10079000AC4273D15E68022E02D05E68122E13D175
:1007A000CF0802F1200656F827004E07F70E0F2655
:1007B000BE40B0434F07FF0E1E69BE403043CF0816
:1007C00002F1200646F8270010684F000326BE40BD
:1007D000B0431E7906F003064F00BE403043106060
:1007E0005E68012E08D05E68022E05D05E68112E6C
:1007F00002D05E68122E13D190684F000326BE40CF
:10080000B0434F00DE68BE40304390605068012620
:100810008E40B0431E79C6F300168E4030435060C0
:10082000D0684F000326BE40B0434F009E68BE40D4
:100830003043D0605E6806F08056B6F1805F7DD1AF
:1008400000BF00260096404E366846F480463E4F74
:100850003E603E46366806F48046009600BF00BF04
:100860003A4E8F0856F827008E07370F0F26BE40E6
:10087000B043374EB24202D1002624E05EE0354E4E
:10088000B24201D101261EE0334EB24201D102260E
:1008900019E0324EB24201D1032614E0304EB2428A
:1008A00001D104260FE02F4EB24201D105260AE005
:1008B0002D4EB24201D1062605E02C4EB24201D1A6
:1008C000072600E008268F073F0FBE4030431F4E2B
:1008D0008F0846F82700264E3068A0435E6806F46D
:1008E0008036B6F5803F00D12043214E3060361D62
:1008F0003068A0435E6806F40036B6F5003F00D1CC
:1009000020431B4E361D3060361D3068A0435E68A4
:1009100006F48016B6F5801F00D12043144E083629
:100920003060361D3068A0435E6806F40016B6F5E8
:10093000001F00D120430E4E0C363060491C102998
:10094000FFF420AFF8BD00004438024008380140F1
:10095000000002400004024000080240000C024077
:10096000001002400014024000180240001C024027
:10097000003C01400AB1816101E00B0483617047D2
:10098000014800687047000000000020034800682C
:1009900003490978084401490860704700000020B5
:1009A0000800002010B50D48006840F400700B49A5
:1009B00008600846006840F48060086008460068E7
:1009C00040F480700860032000F0A2F8002000F0DE
:1009D00007F800F02BF8002010BD0000003C02409A
:1009E00070B504460E4800784FF47A71B1FBF0F010
:1009F0000C490968B1FBF0F5284600F0FFFB08B18F
:100A0000012070BD102C07D200222146501E00F09C
:100A100041F80548046001E00120F2E70020F0E71A
:100A2000080000200C0000200400002008B500BFD2
:100A3000002000900E48006840F480400C49086097
:100A40000846006800F48040009000BF00BF00BF6F
:100A500000200090081F006840F08050091F0860C7
:100A60000846006800F08050009000BF00BF08BD3D
:100A70004438024001460846002809DB00F01F0305
:100A800001229A4043099B0003F1E023C3F80021AF
:100A900000BF70472DE9F05F80460D4616460027DF
:100AA00001F07AFA074639462A46334601F0070034
:100AB000C0F1070ABAF1040F02D94FF0040A01E0AD
:100AC000C0F1070AD14600F1040ABAF1070F02D2B9
:100AD0004FF0000A01E0A0F1030AD4464FF0010AEA
:100AE0000AFA09FAAAF1010A0AEA020A0AFA0CFA4F
:100AF0004FF0010B0BFA0CFBABF1010B0BEA030BF4
:100B00004AEA0B042146404601F04EFABDE8F09F48
:100B100000BF00F00702064B19684FF6FF031940AB
:100B2000044B0B4343EA0221014B196000BF70479D
:100B30000CED00E00000FA0570B504460D460CB956
:100B4000012070BD5848006800F00F00A84209D28B
:100B500055490D700846006800F00F00A84201D00A
:100B60000120EEE7207800F0020002281DD1207855
:100B700000F00400042805D14C48006840F4E0501F
:100B80004A490860207800F00800082805D1474845
:100B9000006840F46040454908604448006820F01F
:100BA000F000A168084341490860207800F0010086
:100BB000A8B36068012807D13C4808380068C0F332
:100BC0004040B8B90120BCE76068022802D06068E4
:100BD000032807D1354808380068C0F3406048B999
:100BE0000120AEE7314808380068C0F3400008B97A
:100BF0000120A6E72D48006820F003006168084343
:100C00002A490860FFF7BCFE064609E0FFF7B8FE78
:100C1000801B41F28831884202D9032091E707E026
:100C20002248006800F00C006168B0EB810FEDD144
:100C30001D48006800F00F00A84209D91A490D703C
:100C40000846006800F00F00A84201D0012078E7B4
:100C5000207800F00400042807D11448006820F42C
:100C6000E050E168084311490860207800F008006E
:100C7000082808D10D48006820F46040216940EA46
:100C8000C1000A49086000F03DF808490968C1F34D
:100C90000311074A515CC840064908600020FFF76D
:100CA0009FFE00204DE70000003C02400838024053
:100CB0005A2F00080C00002001480068704700000F
:100CC0000C00002000B5FFF7F7FF04490968C1F3E5
:100CD0008221034A515CC84000BD00000838024030
:100CE0006A2F000800B5FFF7E7FF04490968C1F360
:100CF0004231034A515CC84000BD00000838024040
:100D00006A2F00082DE9F047002400250026A1469F
:100D10002548006800F00C0020B1042805D0082800
:100D20003AD105E0DFF8849039E0DFF8849036E0CE
:100D30001D48001F006800F03F041B48001F0068AA
:100D400000F4800078B11A481749091F0968C1F3F7
:100D50008811A0FB01700146224600233846FFF7A8
:100D600055FA05460EE011480F49091F0968C1F3FD
:100D70008811A0FB01700146224600233846FFF788
:100D800045FA05460848001F0068C0F30140401CB2
:100D90004600B5FBF6F902E0DFF8109000BF00BF97
:100DA0004846BDE8F0870000083802400024F400FF
:100DB00040787D01F8B504460CB90120F8BD2078D3
:100DC00000F00100002874D0F948006800F00C0021
:100DD00004280DD0F648006800F00C00082813D154
:100DE000F348001F006800F48000B0F5800F0BD1BD
:100DF000EF4808380068C0F34040002859D06068C8
:100E0000002856D10120D9E700BF6068B0F5803FC7
:100E100008D1E7480838006840F48030E4490839D0
:100E200008601EE06068B0F5A02F0DD1E0480838DA
:100E3000006840F48020DE490839086008460068F0
:100E400040F4803008600CE0D9480838006820F48D
:100E50008030D749083908600846006820F48020AF
:100E6000086000BF606890B1FFF78AFD054606E0A4
:100E7000FFF786FD401B642801D903209EE7CC487C
:100E800008380068C0F340400028F1D011E0FFF7B7
:100E900077FD054606E0FFF773FD401B642801D986
:100EA00003208BE7C24808380068C0F340400028A0
:100EB000F1D1207800F0020002285FD1BC48006820
:100EC00000F00C0058B1BA48006800F00C00082887
:100ED0001CD1B748001F006800F48000B0B9B448C6
:100EE00008380068C0F3400020B1E068012801D054
:100EF000012063E7AE480838006820F0F800216957
:100F000040EAC100AA490839086037E0E06800B348
:100F10000120A8490860FFF733FD054606E0FFF70A
:100F20002FFD401B022801D9032047E7A0480838BD
:100F30000068C0F340000028F1D09D4808380068E0
:100F400020F0F800216940EAC10099490839086099
:100F500014E0002097490860FFF712FD054606E0FF
:100F6000FFF70EFD401B022801D9032026E7904819
:100F700008380068C0F340000028F1D1207800F064
:100F8000080008282CD16069A8B101208A490860AE
:100F9000FFF7F6FC054606E0FFF7F2FC401B0228CF
:100FA00001D903200AE782486C300068C0F3400092
:100FB0000028F1D014E000207F490860FFF7E0FC32
:100FC000054606E0FFF7DCFC401B022801D90320A0
:100FD000F4E677486C300068C0F340000028F1D197
:100FE000207800F00400042870D1002670483830C2
:100FF000006800F0805090B900BF002000906C485D
:101000003830006840F0805069493831086008463F
:10101000006800F08050009000BF00BF01266748C4
:10102000006800F48070B0B96448006840F48070D3
:1010300062490860FFF7A4FC054606E0FFF7A0FC44
:10104000401B022801D90320B8E65C48006800F480
:1010500080700028F2D000BFA068012808D1544851
:101060006830006840F001005149683108601DE0B7
:10107000A06805280DD14E486830006840F0040093
:101080004B49683108600846006840F0010008607C
:101090000CE047486830006820F00100444968319E
:1010A00008600846006820F00400086000BFA068DF
:1010B000A8B1FFF765FC054609E0FFF761FC401B9E
:1010C00041F28831884202D9032077E626E0384889
:1010D00068300068C0F340000028EED013E0FFF74E
:1010E0004FFC054608E0FFF74BFC401B41F28831FE
:1010F000884201D9032061E62D4868300068C0F3BA
:1011000040000028EFD1012E07D12948383000686F
:1011100020F0805026493831086000BFA069B8B37C
:101120002348006800F00C0008285ED0A06902285F
:1011300046D100201F490866FFF722FC054606E05D
:10114000FFF71EFC401B022801D9032036E6184891
:1011500008380068C0F340600028F1D1D4E90701E5
:101160000843616A40EA81110122A06AC2EB500083
:1011700041EA00412C20005D41EA00600C49091F52
:10118000086001200B490866FFF7FAFB054607E0F7
:101190002DE0FFF7F5FB401B022801D903200DE6E7
:1011A000034808380068C0F340600028F1D01EE012
:1011B0000838024000004742800E4742007000405D
:1011C00000200C490866FFF7DBFB054606E0FFF749
:1011D000D7FB401B022801D90320EFE50648006831
:1011E000C0F340600028F2D101E00120E6E50020D4
:1011F000E4E50000000047420038024070B50446B4
:101200002546681EB0F1807F01D301200FE0681EE3
:101210004FF0E02148610F214FF0FF3000F0C4FE95
:1012200000204FF0E021886107200861002070BD98
:101230007047704710B5024600BF92F83C00012885
:1012400001D1022010BD012082F83C0000BF022025
:1012500082F83D00106843681068846823F07003CA
:101260000868034324F0800448680443106843601E
:1012700010688460012082F83D0000BF002082F8E1
:101280003C0000BF00BFDDE710B504460CB90120EB
:1012900010BD94F83D0028B9002084F83C00204699
:1012A00000F00CF8022084F83D00211D206800F0B9
:1012B000FFFB012084F83D000020E9E738B5044633
:1012C0000E492068884217D100BF002000900C48CA
:1012D000006840F001000A4908600846006800F014
:1012E0000100009000BF00BF002211461920FFF747
:1012F000D1FB1920FFF7BEFB38BD00000000014004
:101300004438024001460868C06840F001000B689C
:10131000D8600868806800F00702062A05D00868CF
:10132000006840F001000B681860002070472DE94C
:10133000F04104460D4600BF94F83C00012802D15C
:101340000220BDE8F081012084F83C0000BF0220AB
:1013500084F83D002068866826F0770626F47F46EC
:10136000206886602868502833D00CDC202850D0B4
:1013700004DC00284BD0102851D149E0302849D056
:1013800040284CD139E060282DD0702807D0B0F526
:10139000805F03D0B0F5005F41D10DE040E0D5E9BA
:1013A00002136A68206800F0EFFB2068866846F048
:1013B00077062068866033E0D5E902136A68206802
:1013C00000F0E2FB2068806840F48040216888607B
:1013D00026E0EA686968206800F0EAFB502120688E
:1013E00000F0DDFB1CE0EA686968206800F0F3FBB0
:1013F0006021206800F0D3FB12E0EA686968206889
:1014000000F0D6FB4021206800F0C9FB08E000BFD7
:1014100000BF00BF2968206800F0C1FB00E000BFEA
:1014200000BF012084F83D0000BF002084F83C008C
:1014300000BF00BF85E7704710B50446206800690B
:10144000C0F34000D8B12068C068C0F34000B0B11C
:101450006FF0020021680861012020772068806910
:1014600000F0030018B12046FFF7E5FF05E0204635
:1014700000F0ADF8204600F0ABF80020207720689F
:101480000069C0F38000D8B12068C068C0F3800054
:10149000B0B16FF004002168086102202077206855
:1014A000806900F4407018B12046FFF7C4FF05E0E2
:1014B000204600F08CF8204600F08AF800202077C3
:1014C00020680069C0F3C000D8B12068C068C0F3CC
:1014D000C000B0B16FF008002168086104202077D7
:1014E0002068C06900F0030018B12046FFF7A3FF91
:1014F00005E0204600F06BF8204600F069F8002077
:10150000207720680069C0F30010D8B12068C06857
:10151000C0F30010B0B16FF010002168086108201E
:1015200020772068C06900F4407018B12046FFF7AA
:1015300082FF05E0204600F04AF8204600F048F817
:10154000002020772068006900F0010058B1206871
:10155000C06800F0010030B16FF00100216808613F
:10156000204600F036F820680069C0F3C01058B17A
:101570002068C068C0F3C01030B16FF080002168EF
:1015800008612046FFF754FE20680069C0F3801010
:1015900058B12068C068C0F3801030B16FF04000CF
:1015A00021680861204600F019F820680069C0F33E
:1015B000401058B12068C068C0F3401030B16FF0DF
:1015C0002000216808612046FFF733FE10BD7047F8
:1015D000704710B5044601F0A7FB10BD704710B569
:1015E00004460CB9012010BDA06900B100E000BFA5
:1015F00094F8390028B9002084F83800204600F01B
:1016000027F8242084F839002068C06820F40050AE
:101610002168C860204600F0F3FA2068006920F4D1
:101620009040216808612068406920F02A00216804
:1016300048612068C06840F400502168C8600020FC
:10164000E063202084F8390084F83A000020CAE7DB
:1016500010B586B00446142101A8FEF70FFE3749E5
:101660002068884231D100BF0020009034480068D3
:1016700040F01000324908600846006800F0100091
:10168000009000BF00BF00BF002000902C4814381D
:10169000006840F001002A491439086008460068D3
:1016A00000F00100009000BF00BF4FF4C060019047
:1016B000022002900120039003200490072005904F
:1016C00001A92048FFF756F836E01F4920688842F4
:1016D00032D100BF002000901948001F006840F47C
:1016E00080201749091F08600846006800F4802020
:1016F000009000BF00BF00BF0020009010481438C9
:10170000006840F002000E4914390860084600687D
:1017100000F00200009000BF00BF4FF44060019055
:1017200002200290012003900320049007200590DE
:1017300001A90648FFF71EF806B010BD00100140D1
:1017400044380240000002400048004000040240CB
:1017500000BFFEE700B587B0142102A8FEF78EFD9A
:1017600000BF002001905148006840F080004F49C0
:1017700008600846006800F08000019000BF00BFCC
:1017800000BF002001900846006840F00200086099
:101790000846006800F00200019000BF00BF00BFD3
:1017A000002001900846006840F0010008600846EB
:1017B000006800F00100019000BF00BF00BF0020E2
:1017C00001900846006840F0040008600846006880
:1017D00000F00400019000BF00BF00BF0020019096
:1017E0000846006840F4807008600846006800F40D
:1017F0008070019000BF00BF00BF0020019008462C
:10180000006840F0200008600846006800F02000F2
:10181000019000BF00BF00BF002001900846006893
:1018200040F0010008600846006800F001000190E7
:1018300000BF00BF00224FF4F8611D48FFF79AF87F
:101840004FF40070029000200390049002A9194800
:10185000FEF790FF4FF40060029000200390049088
:1018600002A91348FEF786FF4FF4005002900020B3
:101870000390049002A91048FEF77CFF012002901B
:1018800000200390049002A90C48FEF773FF4FF468
:10189000F86002900120039000200490059002A9B6
:1018A0000348FEF767FF07B000BD00003038024074
:1018B00000140240002002400008024000000240E4
:1018C00000B587B000200390049005900690019029
:1018D0000290124812490860A72048600021104871
:1018E000816040F2E731C1600021016141618161A5
:1018F000FFF7CAFC4FF48050039003A90848FFF794
:1019000016FD00200190029001A90548FFF792FC06
:101910000348FFF7F7FC07B000BD000000000140DE
:101920004002002010B50948094908604FF4E13031
:101930004860002106488160C16001610C2141615D
:1019400000218161C161FFF74AFE10BD0010014016
:10195000C001002010B50948094908604FF416403D
:101960004860002106488160C16001610C2141612D
:1019700000218161C161FFF732FE10BD00480040C7
:101980000002002000BFFEE77047704710B5FEF769
:10199000FDFF10BD00B593B0302107A8FEF76EFC27
:1019A000142102A8FEF76AFC00BF00200190214824
:1019B000006840F080501F4908600846006800F049
:1019C0008050019000BF00BF00BF002001901A4866
:1019D000006840F48040184908600846006800F438
:1019E0008040019000BF00BF0120079000040890D4
:1019F00002200D9041050E9119210F914FF4A8710D
:101A00001091022111910421129107A8FFF7D2F938
:101A10000F20029002200390002004904FF4A05069
:101A200005904FF480500690052102A8FFF784F836
:101A300013B000BD403802400070004014480068F8
:101A400040F47000124908601248006840F001003C
:101A50001049086000200F49083108600D480068EF
:101A60000D4908400B4908600C48091D0860081F13
:101A7000006820F48020091F0860002005490C310F
:101A800008604FF00060024980390860704700002C
:101A900088ED00E000380240FFFFF6FE1030002421
:101AA00010B50248FFF7C8FC10BD0000400200203E
:101AB00010B50268294B98420ED0B0F1804F0BD080
:101AC000274B984208D0274B984205D0264B984286
:101AD00002D0264B984203D122F070024B681A4381
:101AE0001E4B984220D0B0F1804F1DD01C4B984225
:101AF0001AD01C4B984217D01B4B984214D01B4B4A
:101B0000984211D01A4B98420ED01A4B98420BD0E3
:101B1000194B984208D0194B984205D0184B98425F
:101B200002D0184B984203D122F44072CB681A437A
:101B300022F080034C6943EA040202608B68C362AE
:101B40000B688362054B984202D0084B984201D142
:101B50000B6903630123436110BD000000000140D5
:101B60000004004000080040000C00400004014058
:101B7000004001400044014000480140001800407E
:101B8000001C00400020004030B50C46816821F464
:101B90007F4142EA032525432943816030BD0A463F
:101BA000816821F0700142F007031943816070479A
:101BB00030B50B461446026A056A25F00105056238
:101BC000816921F0F00141EA041122F00A021A436E
:101BD0008161026230BD30B50B461446056A25F0BE
:101BE000100505628169026A21F4704141EA0431FD
:101BF00022F0A00242EA03128161026230BD0000BD
:101C00002DE9F04104462068006920F44050E16865
:101C10000843216808612169A06808436169084395
:101C2000E16940EA01052068C06849F20C61884317
:101C300028432168C8602068406920F44070A16989
:101C4000084321684861E069B0F5004F7ED1C4497E
:101C50002068884203D0C349206888425DD1FFF7DD
:101C600041F800EBC00101EB001061684900B0FBD6
:101C7000F1F06421B0FBF1F00601FFF733F800EB5F
:101C8000C00101EB001061684900B0FBF1F7FFF7FC
:101C900029F800EBC00101EB001061684900B0FBBE
:101CA000F1F06421B0FBF1F000EBC00101EB00109A
:101CB000A7EB8000322101EBC0006421B0FBF1F002
:101CC00000F0F80006EB4006FFF70CF800EBC0014F
:101CD00001EB001061684900B0FBF1F7FFF702F873
:101CE00000EBC00101EB001061684900B0FBF1F0AE
:101CF0006421B0FBF1F000EBC00101EB0010A7EB99
:101D00008000322101EBC0006421B0FBF1F000F053
:101D1000070030442168886020E1FEF7D3FF00EB24
:101D2000C00101EB001061684900B0FBF1F06421D3
:101D3000B0FBF1F00601FEF7C5FF00EBC00101EBBF
:101D4000001061684900B0FBF1F700E045E0FEF7E4
:101D5000B9FF00EBC00101EB001061684900B0FB66
:101D6000F1F06421B0FBF1F000EBC00101EB0010D9
:101D7000A7EB8000322101EBC0006421B0FBF1F041
:101D800000F0F80006EB4006FEF79CFF00EBC001F8
:101D900001EB001061684900B0FBF1F7FEF792FF1C
:101DA00000EBC00101EB001061684900B0FBF1F0ED
:101DB0006421B0FBF1F000EBC00101EB0010A7EBD8
:101DC0008000322101EBC0006421B0FBF1F000F093
:101DD0000700304421688860C0E06149206888427B
:101DE00003D06049206888425CD1FEF77BFF00EB9E
:101DF000C00101EB001061688900B0FBF1F6FEF74D
:101E000071FF00EBC00101EB001061688900B0FBBD
:101E1000F1F06421B0FBF1F000EBC00101EB001028
:101E2000A6EB8000322101EB00106421B0FBF1F041
:101E300000F0F006FEF756FF00EBC00101EB0010CA
:101E400061688900B0FBF1F06421B0FBF1F006EBB2
:101E50000016FEF747FF00EBC00101EB00106168C0
:101E60008900B0FBF1F7FEF73DFF00EBC00101EB8D
:101E7000001061688900B0FBF1F06421B0FBF1F063
:101E800000EBC00101EB0010A7EB8000322101EB59
:101E900000106421B0FBF1F000F00F003044216825
:101EA00088605BE0FEF70EFF00EBC00101EB001065
:101EB00061688900B0FBF1F6FEF704FF00EBC0019A
:101EC00001EB001061688900B0FBF1F06421B0FB08
:101ED000F1F000EBC00101EB0010A6EB8000322115
:101EE00001EB00106421B0FBF1F000F0F006FEF70A
:101EF000E9FE00EBC00101EB001061688900B0FB56
:101F0000F1F06421B0FBF1F006EB0016FEF7DAFE0B
:101F100000EBC00101EB001061688900B0FBF1F734
:101F2000FEF7D0FE00EBC00101EB001061688900F4
:101F3000B0FBF1F06421B0FBF1F000EBC00101EB6C
:101F40000010A7EB8000322101EB00106421B0FBF0
:101F5000F1F000F00F00304421688860BDE8F081A6
:101F6000001001400014014000BFFEE77CB50446AC
:101F700000201D46164600290BD0491ECDE9004120
:101F8000044B6A462946304600F0F4F8009A0021D6
:101F900011707CBDA328000802480068C0F302202D
:101FA000704700000CED00E010B5002804DB0A07C4
:101FB000130E054A135406E00A07140E034A00F0F4
:101FC0000F031B1FD45410BD00E400E018ED00E027
:101FD00002E008C8121F08C1002AFAD170477047F2
:101FE000002001E001C1121F002AFBD17047000050
:101FF0002DE9FF5F82B00021DDE90430020DDDF83C
:1020000040B0034318D044F61050A2F2FF324243CE
:102010001514119801281FD0A5EB0B00401C5FEA96
:10202000000A4FF000064E4FDFF83891B046504698
:1020300015D5CAF1000413E0119801244AA3012820
:1020400001D16FEA0B010298119AC0E90031C0E991
:10205000024206B0BDE8F09FCBF10000DFE7044686
:102060000021404A491842EB0450CDE9001012E02B
:10207000E00707D032463B4640464946FEF7E5F9C1
:102080008046894632463B4610461946FEF7DDF942
:1020900006460F466410002CEAD1DDE90401DDE9B3
:1020A0000023BAF1000F06DAFEF7CFF942464B469D
:1020B000FEF7CBF905E0FEF73AFA42464B46FEF74B
:1020C00036FA04460E460022284BFEF7B7FA03D82C
:1020D0004FF0FF30014607E00022254B20463146F5
:1020E000FEF70CF9FEF792FA102409E0002C0ADB47
:1020F0000A220023FEF78AF8039B30321A55641E29
:1021000050EA0102F2D1641C039AC4F11103144491
:10211000119A012A03D0012208430DD10AE0084395
:1021200004D000204FF0110B119072E7A3EB0B05C8
:102130006D1E0DE05B4504DD4FF0000205F1010569
:1021400004E003DA4FF00002A5F10105002AECD00B
:1021500002981199C0E90231C0E9004579E7000011
:10216000000014400000F03F300000000000F04389
:102170000000E03F2DE9FF4F95B09B46894606469B
:1021800000250FE2252877D100242746F84A0121AF
:10219000059400E0044316F8013F203B01FA03F0E8
:1021A0001042F7D130782A2811D06FF02F03307801
:1021B000A0F13002092A16D8059A44F0020402EB75
:1021C000820203EB42021044761C0590EFE759F8B7
:1021D000042B0592002A03DA504244F4005405907F
:1021E00044F00204761C30782E2816D116F8010F20
:1021F00044F004042A280DD06FF02F023078A0F1AB
:102200003003092B09D807EB870302EB4303C718F8
:10221000761CF3E759F8047B761C30786C280FD0D5
:1022200006DC4C2817D068280DD06A2814D104E0A9
:10223000742810D07A280FD10DE044F400140AE07D
:1022400044F4801401E044F440147278824202D1D4
:1022500004F58014761C761C307866280BD013DCCD
:10226000582877D009DC002875D04528F6D04628B4
:10227000F4D047281AD19DE118E0632835D06428AE
:1022800079D0652812D195E1702873D008DC6728D1
:10229000F1D069286FD06E280DD06F2806D1B5E037
:1022A00073282CD0752875D0782874D05A46179981
:1022B00090476D1C75E1C4F30250022809D0032831
:1022C0000DD0D9F8001004280DD00D6009F10409D3
:1022D00067E1D9F80010EA17C1E90052F6E7D9F82A
:1022E00000100D80F2E70D70F0E719F8041B8DF86F
:1022F000001000208DF80100EA46012003E059F8A3
:1023000004AB4FF0FF3061074FF0000102D40DE045
:1023100008F101018846B9420FDA8045F8DB1AF866
:1023200008100029F4D108E008F101018846814233
:10233000FADB1AF808100029F6D105985B46A0EBE5
:10234000080721463846179A00F094FA284400EB13
:10235000080507E04DE029E10DE01AF8010B5A46A7
:1023600017999047B8F10108F7D25B4621463846E5
:10237000179A13E142E00A220092C4F302524FF08E
:10238000000A022A08D059F804CB032A4FEAEC715C
:102390000AD00DE029E02AE009F1070121F0070247
:1023A000F2E802C1914609E00FFA8CFC4FEAEC71A9
:1023B000042A03D14FFA8CFC4FEAEC71002907DAAA
:1023C0000A460021DCF1000C61EB02012D2202E043
:1023D000220504D52B228DF80420012203E0E20718
:1023E00001D02022F7E7904659E00A2102E01022AE
:1023F0000DE010214FF0000A00910BE010224FF089
:10240000000A44F004040827009203E008224FF079
:10241000000A0092C4F30252022A05D059F804CBF4
:102420000021032A08D009E009F1070121F0070281
:10243000F2E802C1914605E01FFA8CFC042A01D1A2
:102440000CF0FF0C4FF00008220728D5702806D0AA
:10245000009B83F0100353EA0A0305D00EE04022EC
:102460008DF80420012208E05CEA010206D0302247
:102470008DF804208DF8050002229046009B83F021
:10248000080353EA0A030AD15CEA010201D1620798
:1024900005D530228DF804204FF001087F1E582802
:1024A00004D034A003900EA802900DE036A0F9E706
:1024B00053466046009AFDF7A9FE84460398825C65
:1024C0000298401E029002705CEA0100F0D102986E
:1024D00006A9081A00F1200A600702D524F4803406
:1024E00000E00127574502DDA7EB0A0000E00020CD
:1024F00000EB0A01009005984144401A0590E00362
:1025000006D45B462146179A059800F0B3F90544B6
:10251000002706E001A85A46C05D179990476D1C38
:102520007F1C4745F6DBE0030CD55B462146179A36
:10253000059800F09FF9054404E030205A461799A9
:1025400090476D1C0099481E00900029F5DC08E0BA
:10255000029802995A460078491C029117999047AF
:102560006D1CBAF10001AAF1010AF1DC65E100007D
:102570000928010030313233343536373839616259
:10258000636465660000000030313233343536371D
:1025900038394142434445460000000000F058F9F4
:1025A0000544761C307800287FF4ECAD19B028463D
:1025B000BDE8F08F620700D4062709F1070222F078
:1025C000070CFCE80223E14603F000485FEA080C30
:1025D00002D00FF2702C0DE05FEA045C02D50FF21E
:1025E000682C07E05FEAC47C02D00FF2602C01E0A7
:1025F000AFF2700C4FF0FF3823F00043CDF850C01D
:1026000065280CD006DC452809D046281DD047286F
:102610003DD13DE0662818D067287ED138E0002102
:10262000112F01DB112000E0781CCDE9000106A983
:102630000EA8FFF7DDFCDDE90F010E9A03910021E2
:10264000009207F1010A04914DE04FF0004000971D
:10265000CDE9011006A90EA8FFF7CAFCDDE90F02BB
:1026600003920E9B11990022DDF80CA000930492B6
:1026700011B9791C00EB010AB7EB0A0004D4C0F1D0
:10268000FF3007F1010A0490AAEB0700019044E033
:10269000012F00DA01270021112F01DD112000E0B8
:1026A0003846CDE9000106A90EA8FFF7A1FCDDE937
:1026B0000F010E9A0391002104910092BA4621075E
:1026C0000CD40399514500DA8A46BAF1010F05DDB1
:1026D000009AAAF10101515C302908D0B84202DA0F
:1026E00010F1040F06DA0121CDE9011015E0AAF17D
:1026F0000101E9E7002805DC049901440491AAEBF3
:10270000000102E0411C514500DD8A460499401A4F
:10271000401C01904FF000400290200704D4019823
:10272000504501DBCDF8048000208DF84F00029861
:102730000DF14F07B0F1004F25D02B200E900298DD
:102740004FF0020800280CDA404202902D200E9033
:1027500007E00A210298FDF79CFD3031029007F84E
:10276000011DB8F10001A8F10108F2DC029800286F
:10277000EFD1791E0E980870307800F0200040F0FC
:10278000450007F8020D12A8C01B00F107081498B5
:10279000007800B1012000EB0A01019801EBE07123
:1027A00005984144401A401E0590E00306D45B465C
:1027B0002146179A059800F05DF8054414980078B2
:1027C00018B15A46179990476D1CE00324D55B4613
:1027D0002146179A059800F04DF805441CE004982E
:1027E000002807DBDDE90301884203DD0098405C37
:1027F000179901E0179930205A469047049805F13F
:102800000105401C04900198401E019004D12E2027
:102810005A46179990476D1CBAF10001AAF1010AB6
:10282000DDDC05E017F8010B5A46179990476D1C3F
:10283000B8F10001A8F10108F4DC5B462146179AC3
:102840000598ABE62D0000002B00000020000000E2
:102850002DE9F041044600251E461746880404D49D
:1028600005E039462020B0476D1C641EF9D5284686
:10287000BDE8F0812DE9F041044600251E46904652
:10288000C80301D5302700E02027880404D505E0DF
:1028900041463846B0476D1C641EF9D52846BDE850
:1028A000F0814A68002A06D00A68531C0B60107039
:1028B0004868401E4860704710B5FEF761F804464E
:1028C000214602A000F020FB10BD0000416C6172A7
:1028D0006D2046697265204025640D0A00000000E5
:1028E00010B5FEF75FF8FFF755F8FEF733FFFFF777
:1028F00019F8FFF72FF8FEF7E3FF10BD10B50446F7
:1029000001E000F041F800F011F80028F9D0054886
:102910000068446004480068401C03490860204681
:1029200010BD0000000200203C00002002480068AA
:10293000006800F08000704700020020704710B56A
:1029400000F0D8F910BD000000B54FF4FA72002174
:10295000044800F0A7F94FF47A71034800F0B8F981
:1029600000BD000091290008B928000810B5FFF744
:10297000EBFF01E0FFF7E3FF024800680028F9D011
:1029800010BD00003400002010B500F0B5FA10BDF5
:1029900010B5FDF7F5FF0446012000F023F80220F2
:1029A00000F020F8032000F01DF80C480068201A01
:1029B000B0F57A7F11D3094804600948006830B146
:1029C000002000F00FF800200549086005E0002015
:1029D00000F00FF801200249086010BD2C00002013
:1029E0003000002010B504460121204600F008F810
:1029F00010BD10B504460021204600F001F810BDBE
:102A000070B504460D46032C00DD0324EAB2E01D38
:102A10000123834099B20248FDF7ACFF70BD00006E
:102A200000140240FFF75CFF01E0FFF79FFFFCE7A7
:102A300001480068704700001400002010B50446EB
:102A400032A000F061FA38A0616D00F05DFA3AA0A2
:102A5000216D00F059FA3CA0E16C00F055FA3EA05F
:102A6000A16C00F051FA40A0616C00F04DFA42A058
:102A7000216C00F049FA44A0E16B00F045FA46A051
:102A8000A16B00F041FA2BA000F03EFA46A0616B6A
:102A900000F03AFA48A0216B00F036FA4AA0E16A49
:102AA00000F032FA4CA0A16A00F02EFA4EA0616A42
:102AB00000F02AFA50A0216A00F026FA52A0E1693B
:102AC00000F022FA54A0A16900F01EFA56A0616934
:102AD00000F01AFA17A000F017FA57A0216900F0C9
:102AE00013FA5BA0E16800F00FFA5EA0A16800F0A5
:102AF0000BFA62A0616800F007FA65A0216800F097
:102B000003FA2046FFF71AFF10BD00000D0A5374A8
:102B100061636B206672616D652055502D3E446F78
:102B2000776E3A0A0000000020505352203D2020CA
:102B3000253038580A00000020504320203D202036
:102B4000253038580A000000204C5220203D20201B
:102B5000253038580A00000020523132203D202014
:102B6000253038580A00000020523320203D202014
:102B7000253038580A00000020523220203D202005
:102B8000253038580A00000020523120203D2020F6
:102B9000253038580A00000020523020203D2020E7
:102BA000253038580A00000020723131203D2020A5
:102BB000253038580A00000020723130203D202096
:102BC000253038580A00000020723920203D20208E
:102BD000253038580A00000020723820203D20207F
:102BE000253038580A00000020723720203D202070
:102BF000253038580A00000020723620203D202061
:102C0000253038580A00000020723520203D202051
:102C1000253038580A00000020723420203D202042
:102C2000253038580A00000020737020203D2020F5
:102C3000253038580A00000020747261705F787087
:102C4000737220203D2020253038580A00000000F3
:102C500020747261705F737020203D202025303811
:102C6000580A0000206578635F72657475726E2083
:102C7000203D2020253038580A0000002074726161
:102C8000705F706320203D2020253038580A0000F6
:102C900020636F6E74726F6C20203D2020253038C9
:102CA000580A000010B503460020084808E00468F0
:102CB0002CB90360416082600024C46010BD1030F4
:102CC000024C8034A042F2D300BFF7E7400100205D
:102CD00030B504460D46002229462046FFF7E2FFA4
:102CE00030BD00B970470021016041608160C16062
:102CF00000BFF7E710B500240A4C0EE0E06858B1B9
:102D0000206848B120688047E068401EE060A06805
:102D100010B92046FFF7E5FF1034024880308442A6
:102D2000ECD310BD400100200B480FE0016861B1F9
:102D3000416839B9C168491CC160816829B181689D
:102D4000416002E04168491E416010300249803113
:102D50008842EBD3704700004001002070B5044664
:102D600028480068401C274908602748006818B1B7
:102D700026480068002828D1214625A000F0C4F884
:102D800029A0616C00F0C0F82BA0216C00F0BCF809
:102D90002DA0E16B00F0B8F82FA0A16A00F0B4F804
:102DA00031A0616800F0B0F835A0216800F0ACF8FF
:102DB000206C10F8021C38A000F0A6F8114800683A
:102DC000401E10490860204670BD0F48006804602E
:102DD0000E48006805680D4800684069401C0B49B2
:102DE00009684861002009490968C8610748006806
:102DF0000549086003480068401E024908602846EB
:102E0000E2E7000024000020140000201800002049
:102E1000537461636B206672616D65206F6E20254F
:102E20003038583A0A000000207850535220093DAB
:102E30002020253038580A0020504320093D20200A
:102E4000253038580A000000204C5220093D20202F
:102E5000253038580A00000020523020093D20203B
:102E6000253038580A000000204558435F52455429
:102E700055524E203D2020253038580A00000000D1
:102E800020434F4E54524F4C200920203D202025F6
:102E90003038580A0000000020535643204E4F207F
:102EA0000920203D2020253038580A0010B504465E
:102EB0000E480068002800DD10BD1CB10C480068F9
:102EC000844200D1F8E71CB1A06908B1206A08B1BA
:102ED00000F012F80648006818B90648006804496E
:102EE00008600448046000DF00BFE5E7240000201C
:102EF000140000201800002010B5FFF799FD0446CB
:102F0000FFF7D4FF10BD00000FB438B505A800903E
:102F10004FF480710948009B049AFFF727F8044694
:102F2000002C04DD2146054800F00AF80446002084
:102F30000090204638BC5DF814FB000040000020E3
:102F400070B506460C46002503E0705DFFF7D6FC21
:102F50006D1CA542F9DB204670BD0000000000009A
:102F60000000010203040607080900000000010236
:102F700003040000942F000800000020400000001F
:102F8000D01F0008D42F000840000020400A000095
:102F9000E01F000800000000100000000100000019
:102FA0000024F40000000000000000000000000009
:102FB0000000000000000000000000000000000011
:102FC0000000000000000000000000000000000001
:042FD00000000000FD
:040000050800018965
:00000001FF
